:100000000C9456000C9468000C9468000C946800E2
:100010000C9468000C9468000C9468000C946800C0
:100020000C9468000C9468000C9468000C946800B0
:100030000C9468000C9468000C9468000C946800A0
:100040000C9468000C9468000C9468000C94680090
:100050000C9496010C9468000C9468000C94680051
:100060000C9468000C9468000C9468000C94680070
:100070000C9468000C9468000C9468000C94680060
:100080000C9468000C9468000C9468000C94680050
:100090000C9468000C9468000C9468000C94680040
:1000A0000C9468000C9468000C94680011241FBE26
:1000B000CFEFDAE0DEBFCDBF21E0A0E0B1E001C0CC
:1000C0001D92A931B207E1F70E9464010C94050268
:1000D0000C940000249A87B187B9559A2E9A88B15A
:1000E00088B98BB18BB90895E0E8F0E08081826037
:1000F0008083E1E8F0E080818B618083EFE6F0E0CF
:1001000080818160808389EF90E090938700809365
:1001100086000895ECE7F0E0808181648083EAE75F
:10012000F0E08081816E808310927B0008952091A1
:100130007800309179004091010150910201609165
:10014000030170910401E9EAE29FC001E39F900D71
:1001500011240A97A0E0B0E0481759076A077B0707
:10016000C8F02091780030917900409101015091C0
:1001700002016091030170910401E29FC001E39FBD
:10018000900D11240A96A0E0B0E084179507A60709
:10019000B70748F5209178003091790049EA429FED
:1001A000C001439F900D1124A0E0B0E080930101B5
:1001B00090930201A0930301B09304018091000188
:1001C0008D7F809300011092090110920A01109214
:1001D0000B0110920C011092050110920601109271
:1001E00007011092080108954091090150910A01F8
:1001F00060910B0170910C018091010190910201BD
:10020000A0910301B0910401481759076A077B07C1
:10021000A0F48091090190910A01A0910B01B09185
:100220000C010196A11DB11D8093090190930A0153
:10023000A0930B01B0930C0108958091050190915A
:100240000601A0910701B09108010697A105B1052B
:10025000C8F48091050190910601A0910701B09129
:1002600008010196A11DB11D80930501909306011F
:10027000A0930701B09308018091000182608093F0
:1002800000010895809100018D7F809300011092FC
:10029000090110920A0110920B0110920C011092A8
:1002A00005011092060110920701109208010895AD
:1002B0008091000180FD04C08091000181FF02C097
:1002C0005D9A08955D9808950E946A000E947400E6
:1002D0000E948A00789480911801882321F00E945E
:1002E00058011092180180911701882389F00E940B
:1002F00097001E9906C080910001816080930001E3
:1003000005C0809100018E7F80930001109217013B
:100310008091160181111092160180911501882398
:10032000D1F20E94F40010921501D5CF1F920F92C6
:100330000FB60F9211242F938F939F9380911301E7
:10034000909114010A9750F4809113019091140137
:100350000196909314018093130107C081E080936C
:1003600018011092140110921301809111019091C3
:1003700012018436910550F480911101909112017F
:100380000196909312018093110107C081E0809340
:100390001701109212011092110180910F0190919A
:1003A0001001843F914050F480910F019091100111
:1003B00001969093100180930F0107C081E0809314
:1003C00016011092100110920F0180910D01909171
:1003D0000E01883E934050F480910D0190910E01E2
:1003E000019690930E0180930D0107C081E08093E8
:1003F000150110920E0110920D019F918F912F9176
:0E0400000F900FBE0F901F901895F894FFCF2D
:00000001FF
